{
  "contractName": "_0xBitcoinToken",
  "abi": [
    {
      "constant": true,
      "inputs": [],
      "name": "name",
      "outputs": [
        {
          "name": "",
          "type": "string"
        }
      ],
      "payable": false,
      "stateMutability": "view",
      "type": "function"
    },
    {
      "constant": false,
      "inputs": [
        {
          "name": "spender",
          "type": "address"
        },
        {
          "name": "tokens",
          "type": "uint256"
        }
      ],
      "name": "approve",
      "outputs": [
        {
          "name": "success",
          "type": "bool"
        }
      ],
      "payable": false,
      "stateMutability": "nonpayable",
      "type": "function"
    },
    {
      "constant": false,
      "inputs": [
        {
          "name": "nonce",
          "type": "uint256"
        },
        {
          "name": "challenge_digest",
          "type": "bytes32"
        }
      ],
      "name": "mintTestD",
      "outputs": [
        {
          "name": "digesttest",
          "type": "bytes1"
        }
      ],
      "payable": false,
      "stateMutability": "nonpayable",
      "type": "function"
    },
    {
      "constant": true,
      "inputs": [],
      "name": "lastRewardEthBlockNumber",
      "outputs": [
        {
          "name": "",
          "type": "uint256"
        }
      ],
      "payable": false,
      "stateMutability": "view",
      "type": "function"
    },
    {
      "constant": true,
      "inputs": [],
      "name": "getMiningDifficulty",
      "outputs": [
        {
          "name": "",
          "type": "uint256"
        }
      ],
      "payable": false,
      "stateMutability": "view",
      "type": "function"
    },
    {
      "constant": false,
      "inputs": [
        {
          "name": "nonce",
          "type": "uint256"
        },
        {
          "name": "challenge_digest",
          "type": "bytes32"
        }
      ],
      "name": "mint",
      "outputs": [
        {
          "name": "success",
          "type": "bool"
        }
      ],
      "payable": false,
      "stateMutability": "nonpayable",
      "type": "function"
    },
    {
      "constant": true,
      "inputs": [],
      "name": "totalSupply",
      "outputs": [
        {
          "name": "",
          "type": "uint256"
        }
      ],
      "payable": false,
      "stateMutability": "view",
      "type": "function"
    },
    {
      "constant": false,
      "inputs": [
        {
          "name": "from",
          "type": "address"
        },
        {
          "name": "to",
          "type": "address"
        },
        {
          "name": "tokens",
          "type": "uint256"
        }
      ],
      "name": "transferFrom",
      "outputs": [
        {
          "name": "success",
          "type": "bool"
        }
      ],
      "payable": false,
      "stateMutability": "nonpayable",
      "type": "function"
    },
    {
      "constant": false,
      "inputs": [
        {
          "name": "nonce",
          "type": "uint256"
        },
        {
          "name": "challenge_digest",
          "type": "bytes32"
        }
      ],
      "name": "mintTestA",
      "outputs": [
        {
          "name": "digesttest",
          "type": "bytes1"
        }
      ],
      "payable": false,
      "stateMutability": "nonpayable",
      "type": "function"
    },
    {
      "constant": true,
      "inputs": [],
      "name": "rewardEra",
      "outputs": [
        {
          "name": "",
          "type": "uint256"
        }
      ],
      "payable": false,
      "stateMutability": "view",
      "type": "function"
    },
    {
      "constant": true,
      "inputs": [],
      "name": "decimals",
      "outputs": [
        {
          "name": "",
          "type": "uint8"
        }
      ],
      "payable": false,
      "stateMutability": "view",
      "type": "function"
    },
    {
      "constant": true,
      "inputs": [],
      "name": "_totalSupply",
      "outputs": [
        {
          "name": "",
          "type": "uint256"
        }
      ],
      "payable": false,
      "stateMutability": "view",
      "type": "function"
    },
    {
      "constant": true,
      "inputs": [],
      "name": "getMiningReward",
      "outputs": [
        {
          "name": "",
          "type": "uint256"
        }
      ],
      "payable": false,
      "stateMutability": "view",
      "type": "function"
    },
    {
      "constant": true,
      "inputs": [],
      "name": "getChallengeNumber",
      "outputs": [
        {
          "name": "",
          "type": "bytes32"
        }
      ],
      "payable": false,
      "stateMutability": "view",
      "type": "function"
    },
    {
      "constant": true,
      "inputs": [],
      "name": "maxSupplyForEra",
      "outputs": [
        {
          "name": "",
          "type": "uint256"
        }
      ],
      "payable": false,
      "stateMutability": "view",
      "type": "function"
    },
    {
      "constant": true,
      "inputs": [],
      "name": "tokensMinted",
      "outputs": [
        {
          "name": "",
          "type": "uint256"
        }
      ],
      "payable": false,
      "stateMutability": "view",
      "type": "function"
    },
    {
      "constant": true,
      "inputs": [],
      "name": "lastRewardTo",
      "outputs": [
        {
          "name": "",
          "type": "address"
        }
      ],
      "payable": false,
      "stateMutability": "view",
      "type": "function"
    },
    {
      "constant": true,
      "inputs": [
        {
          "name": "tokenOwner",
          "type": "address"
        }
      ],
      "name": "balanceOf",
      "outputs": [
        {
          "name": "balance",
          "type": "uint256"
        }
      ],
      "payable": false,
      "stateMutability": "view",
      "type": "function"
    },
    {
      "constant": false,
      "inputs": [],
      "name": "acceptOwnership",
      "outputs": [],
      "payable": false,
      "stateMutability": "nonpayable",
      "type": "function"
    },
    {
      "constant": false,
      "inputs": [
        {
          "name": "nonce",
          "type": "uint256"
        },
        {
          "name": "challenge_digest",
          "type": "bytes32"
        }
      ],
      "name": "mintTestC",
      "outputs": [
        {
          "name": "digesttest",
          "type": "bytes1"
        }
      ],
      "payable": false,
      "stateMutability": "nonpayable",
      "type": "function"
    },
    {
      "constant": true,
      "inputs": [],
      "name": "epochCount",
      "outputs": [
        {
          "name": "",
          "type": "uint256"
        }
      ],
      "payable": false,
      "stateMutability": "view",
      "type": "function"
    },
    {
      "constant": true,
      "inputs": [],
      "name": "challengeNumber",
      "outputs": [
        {
          "name": "",
          "type": "bytes32"
        }
      ],
      "payable": false,
      "stateMutability": "view",
      "type": "function"
    },
    {
      "constant": true,
      "inputs": [],
      "name": "owner",
      "outputs": [
        {
          "name": "",
          "type": "address"
        }
      ],
      "payable": false,
      "stateMutability": "view",
      "type": "function"
    },
    {
      "constant": true,
      "inputs": [],
      "name": "_MAXIMUM_DIFFICULTY",
      "outputs": [
        {
          "name": "",
          "type": "uint256"
        }
      ],
      "payable": false,
      "stateMutability": "view",
      "type": "function"
    },
    {
      "constant": false,
      "inputs": [
        {
          "name": "nonce",
          "type": "uint256"
        },
        {
          "name": "challenge_digest",
          "type": "bytes32"
        }
      ],
      "name": "mintTestB",
      "outputs": [
        {
          "name": "digesttest",
          "type": "bytes1"
        }
      ],
      "payable": false,
      "stateMutability": "nonpayable",
      "type": "function"
    },
    {
      "constant": true,
      "inputs": [],
      "name": "symbol",
      "outputs": [
        {
          "name": "",
          "type": "string"
        }
      ],
      "payable": false,
      "stateMutability": "view",
      "type": "function"
    },
    {
      "constant": false,
      "inputs": [
        {
          "name": "to",
          "type": "address"
        },
        {
          "name": "tokens",
          "type": "uint256"
        }
      ],
      "name": "transfer",
      "outputs": [
        {
          "name": "success",
          "type": "bool"
        }
      ],
      "payable": false,
      "stateMutability": "nonpayable",
      "type": "function"
    },
    {
      "constant": true,
      "inputs": [],
      "name": "miningDifficulty",
      "outputs": [
        {
          "name": "",
          "type": "uint256"
        }
      ],
      "payable": false,
      "stateMutability": "view",
      "type": "function"
    },
    {
      "constant": true,
      "inputs": [],
      "name": "_BLOCKS_PER_READJUSTMENT",
      "outputs": [
        {
          "name": "",
          "type": "uint256"
        }
      ],
      "payable": false,
      "stateMutability": "view",
      "type": "function"
    },
    {
      "constant": true,
      "inputs": [],
      "name": "_MINIMUM_DIFFICULTY",
      "outputs": [
        {
          "name": "",
          "type": "uint256"
        }
      ],
      "payable": false,
      "stateMutability": "view",
      "type": "function"
    },
    {
      "constant": true,
      "inputs": [],
      "name": "lastRewardAmount",
      "outputs": [
        {
          "name": "",
          "type": "uint256"
        }
      ],
      "payable": false,
      "stateMutability": "view",
      "type": "function"
    },
    {
      "constant": false,
      "inputs": [
        {
          "name": "spender",
          "type": "address"
        },
        {
          "name": "tokens",
          "type": "uint256"
        },
        {
          "name": "data",
          "type": "bytes"
        }
      ],
      "name": "approveAndCall",
      "outputs": [
        {
          "name": "success",
          "type": "bool"
        }
      ],
      "payable": false,
      "stateMutability": "nonpayable",
      "type": "function"
    },
    {
      "constant": true,
      "inputs": [],
      "name": "latestDifficultyPeriodStarted",
      "outputs": [
        {
          "name": "",
          "type": "uint256"
        }
      ],
      "payable": false,
      "stateMutability": "view",
      "type": "function"
    },
    {
      "constant": true,
      "inputs": [],
      "name": "newOwner",
      "outputs": [
        {
          "name": "",
          "type": "address"
        }
      ],
      "payable": false,
      "stateMutability": "view",
      "type": "function"
    },
    {
      "constant": false,
      "inputs": [
        {
          "name": "tokenAddress",
          "type": "address"
        },
        {
          "name": "tokens",
          "type": "uint256"
        }
      ],
      "name": "transferAnyERC20Token",
      "outputs": [
        {
          "name": "success",
          "type": "bool"
        }
      ],
      "payable": false,
      "stateMutability": "nonpayable",
      "type": "function"
    },
    {
      "constant": true,
      "inputs": [
        {
          "name": "tokenOwner",
          "type": "address"
        },
        {
          "name": "spender",
          "type": "address"
        }
      ],
      "name": "allowance",
      "outputs": [
        {
          "name": "remaining",
          "type": "uint256"
        }
      ],
      "payable": false,
      "stateMutability": "view",
      "type": "function"
    },
    {
      "constant": false,
      "inputs": [
        {
          "name": "_newOwner",
          "type": "address"
        }
      ],
      "name": "transferOwnership",
      "outputs": [],
      "payable": false,
      "stateMutability": "nonpayable",
      "type": "function"
    },
    {
      "inputs": [],
      "payable": false,
      "stateMutability": "nonpayable",
      "type": "constructor"
    },
    {
      "payable": true,
      "stateMutability": "payable",
      "type": "fallback"
    },
    {
      "anonymous": false,
      "inputs": [
        {
          "indexed": true,
          "name": "from",
          "type": "address"
        },
        {
          "indexed": false,
          "name": "reward_amount",
          "type": "uint256"
        },
        {
          "indexed": false,
          "name": "difficulty",
          "type": "uint256"
        },
        {
          "indexed": false,
          "name": "newChallengeNumber",
          "type": "bytes32"
        }
      ],
      "name": "Mint",
      "type": "event"
    },
    {
      "anonymous": false,
      "inputs": [
        {
          "indexed": true,
          "name": "_from",
          "type": "address"
        },
        {
          "indexed": true,
          "name": "_to",
          "type": "address"
        }
      ],
      "name": "OwnershipTransferred",
      "type": "event"
    },
    {
      "anonymous": false,
      "inputs": [
        {
          "indexed": true,
          "name": "from",
          "type": "address"
        },
        {
          "indexed": true,
          "name": "to",
          "type": "address"
        },
        {
          "indexed": false,
          "name": "tokens",
          "type": "uint256"
        }
      ],
      "name": "Transfer",
      "type": "event"
    },
    {
      "anonymous": false,
      "inputs": [
        {
          "indexed": true,
          "name": "tokenOwner",
          "type": "address"
        },
        {
          "indexed": true,
          "name": "spender",
          "type": "address"
        },
        {
          "indexed": false,
          "name": "tokens",
          "type": "uint256"
        }
      ],
      "name": "Approval",
      "type": "event"
    }
  ],
  "bytecode": "0x60606040526107e060085560066009556036600a5534156200002057600080fd5b336000806101000a81548173ffffffffffffffffffffffffffffffffffffffff021916908373ffffffffffffffffffffffffffffffffffffffff1602179055506000809054906101000a900473ffffffffffffffffffffffffffffffffffffffff1673ffffffffffffffffffffffffffffffffffffffff163373ffffffffffffffffffffffffffffffffffffffff16141515620000bc57600080fd5b6040805190810160405280600581526020017f3078425443000000000000000000000000000000000000000000000000000000815250600290805190602001906200010992919062000399565b506040805190810160405280600f81526020017f3078426974636f696e20546f6b656e0000000000000000000000000000000000815250600390805190602001906200015792919062000399565b506008600460006101000a81548160ff021916908360ff160217905550600460009054906101000a900460ff1660ff16600a0a6301406f400260058190555060006013819055506000600d81905550620001cc6002600554620002066401000000000262002313179091906401000000009004565b600e81905550600954600b8190555043600681905550620002006200022c6401000000000262002353176401000000009004565b62000448565b600080821115156200021757600080fd5b81838115156200022357fe5b04905092915050565b600e54601354101580156200024357506020600d54105b1562000256576001600d5401600d819055505b620002836001600d540160020a600554620002066401000000000262002313179091906401000000009004565b60055403600e819055506001430340600c8160001916905550620002c26001600754620003036401000000000262002337179091906401000000009004565b6007819055506000600854600754811515620002da57fe5b06141562000301576200030062000320640100000000026200240c176401000000009004565b5b565b600081830190508281101515156200031a57600080fd5b92915050565b6000806000600654430392506008549150603c820290508083101562000352576002600b5401600b819055506200035f565b6002600b5403600b819055505b43600681905550600954600b5410156200037d57600954600b819055505b600a54600b5411156200039457600a54600b819055505b505050565b828054600181600116156101000203166002900490600052602060002090601f016020900481019282601f10620003dc57805160ff19168380011785556200040d565b828001600101855582156200040d579182015b828111156200040c578251825591602001919060010190620003ef565b5b5090506200041c919062000420565b5090565b6200044591905b808211156200044157600081600090555060010162000427565b5090565b90565b6124ad80620004586000396000f3006060604052600436106101cd576000357c0100000000000000000000000000000000000000000000000000000000900463ffffffff16806306fdde03146101d2578063095ea7b31461026057806312ccf21a146102ba578063163aa00d1461034257806317da485f1461036b5780631801fbe51461039457806318160ddd146103dc57806323b872dd146104055780632a726e501461047e5780632d38bf7a14610506578063313ce5671461052f5780633eaaf86b1461055e578063490203a7146105875780634ef37628146105b05780634fa972e1146105e15780636de9f32b1461060a5780636fd396d61461063357806370a082311461068857806379ba5097146106d55780637cc12810146106ea578063829965cc146107725780638ae0368b1461079b5780638da5cb5b146107cc57806390d4bee514610821578063910861441461084a57806395d89b41146108d2578063a9059cbb14610960578063b40b9bb6146109ba578063b5ade81b146109e3578063b783b0ad14610a0c578063bafedcaa14610a35578063cae9ca5114610a5e578063cb9ae70714610afb578063d4ee1d9014610b24578063dc39d06d14610b79578063dd62ed3e14610bd3578063f2fde38b14610c3f575b600080fd5b34156101dd57600080fd5b6101e5610c78565b6040518080602001828103825283818151815260200191508051906020019080838360005b8381101561022557808201518184015260208101905061020a565b50505050905090810190601f1680156102525780820380516001836020036101000a031916815260200191505b509250505060405180910390f35b341561026b57600080fd5b6102a0600480803573ffffffffffffffffffffffffffffffffffffffff16906020019091908035906020019091905050610d16565b604051808215151515815260200191505060405180910390f35b34156102c557600080fd5b6102e8600480803590602001909190803560001916906020019091905050610e08565b60405180827effffffffffffffffffffffffffffffffffffffffffffffffffffffffffffff19167effffffffffffffffffffffffffffffffffffffffffffffffffffffffffffff1916815260200191505060405180910390f35b341561034d57600080fd5b610355611045565b6040518082815260200191505060405180910390f35b341561037657600080fd5b61037e61104b565b6040518082815260200191505060405180910390f35b341561039f57600080fd5b6103c2600480803590602001909190803560001916906020019091905050611055565b604051808215151515815260200191505060405180910390f35b34156103e757600080fd5b6103ef611370565b6040518082815260200191505060405180910390f35b341561041057600080fd5b610464600480803573ffffffffffffffffffffffffffffffffffffffff1690602001909190803573ffffffffffffffffffffffffffffffffffffffff169060200190919080359060200190919050506113bb565b604051808215151515815260200191505060405180910390f35b341561048957600080fd5b6104ac600480803590602001909190803560001916906020019091905050611666565b60405180827effffffffffffffffffffffffffffffffffffffffffffffffffffffffffffff19167effffffffffffffffffffffffffffffffffffffffffffffffffffffffffffff1916815260200191505060405180910390f35b341561051157600080fd5b61051961172a565b6040518082815260200191505060405180910390f35b341561053a57600080fd5b610542611730565b604051808260ff1660ff16815260200191505060405180910390f35b341561056957600080fd5b610571611743565b6040518082815260200191505060405180910390f35b341561059257600080fd5b61059a611749565b6040518082815260200191505060405180910390f35b34156105bb57600080fd5b6105c3611780565b60405180826000191660001916815260200191505060405180910390f35b34156105ec57600080fd5b6105f461178a565b6040518082815260200191505060405180910390f35b341561061557600080fd5b61061d611790565b6040518082815260200191505060405180910390f35b341561063e57600080fd5b610646611796565b604051808273ffffffffffffffffffffffffffffffffffffffff1673ffffffffffffffffffffffffffffffffffffffff16815260200191505060405180910390f35b341561069357600080fd5b6106bf600480803573ffffffffffffffffffffffffffffffffffffffff169060200190919050506117bc565b6040518082815260200191505060405180910390f35b34156106e057600080fd5b6106e8611805565b005b34156106f557600080fd5b6107186004808035906020019091908035600019169060200190919050506119a4565b60405180827effffffffffffffffffffffffffffffffffffffffffffffffffffffffffffff19167effffffffffffffffffffffffffffffffffffffffffffffffffffffffffffff1916815260200191505060405180910390f35b341561077d57600080fd5b610785611afd565b6040518082815260200191505060405180910390f35b34156107a657600080fd5b6107ae611b03565b60405180826000191660001916815260200191505060405180910390f35b34156107d757600080fd5b6107df611b09565b604051808273ffffffffffffffffffffffffffffffffffffffff1673ffffffffffffffffffffffffffffffffffffffff16815260200191505060405180910390f35b341561082c57600080fd5b610834611b2e565b6040518082815260200191505060405180910390f35b341561085557600080fd5b610878600480803590602001909190803560001916906020019091905050611b34565b60405180827effffffffffffffffffffffffffffffffffffffffffffffffffffffffffffff19167effffffffffffffffffffffffffffffffffffffffffffffffffffffffffffff1916815260200191505060405180910390f35b34156108dd57600080fd5b6108e5611bda565b6040518080602001828103825283818151815260200191508051906020019080838360005b8381101561092557808201518184015260208101905061090a565b50505050905090810190601f1680156109525780820380516001836020036101000a031916815260200191505b509250505060405180910390f35b341561096b57600080fd5b6109a0600480803573ffffffffffffffffffffffffffffffffffffffff16906020019091908035906020019091905050611c78565b604051808215151515815260200191505060405180910390f35b34156109c557600080fd5b6109cd611e13565b6040518082815260200191505060405180910390f35b34156109ee57600080fd5b6109f6611e19565b6040518082815260200191505060405180910390f35b3415610a1757600080fd5b610a1f611e1f565b6040518082815260200191505060405180910390f35b3415610a4057600080fd5b610a48611e25565b6040518082815260200191505060405180910390f35b3415610a6957600080fd5b610ae1600480803573ffffffffffffffffffffffffffffffffffffffff1690602001909190803590602001909190803590602001908201803590602001908080601f01602080910402602001604051908101604052809392919081815260200183838082843782019150505050505091905050611e2b565b604051808215151515815260200191505060405180910390f35b3415610b0657600080fd5b610b0e612075565b6040518082815260200191505060405180910390f35b3415610b2f57600080fd5b610b3761207b565b604051808273ffffffffffffffffffffffffffffffffffffffff1673ffffffffffffffffffffffffffffffffffffffff16815260200191505060405180910390f35b3415610b8457600080fd5b610bb9600480803573ffffffffffffffffffffffffffffffffffffffff169060200190919080359060200190919050506120a1565b604051808215151515815260200191505060405180910390f35b3415610bde57600080fd5b610c29600480803573ffffffffffffffffffffffffffffffffffffffff1690602001909190803573ffffffffffffffffffffffffffffffffffffffff169060200190919050506121ed565b6040518082815260200191505060405180910390f35b3415610c4a57600080fd5b610c76600480803573ffffffffffffffffffffffffffffffffffffffff16906020019091905050612274565b005b60038054600181600116156101000203166002900480601f016020809104026020016040519081016040528092919081815260200182805460018160011615610100020316600290048015610d0e5780601f10610ce357610100808354040283529160200191610d0e565b820191906000526020600020905b815481529060010190602001808311610cf157829003601f168201915b505050505081565b600081601560003373ffffffffffffffffffffffffffffffffffffffff1673ffffffffffffffffffffffffffffffffffffffff16815260200190815260200160002060008573ffffffffffffffffffffffffffffffffffffffff1673ffffffffffffffffffffffffffffffffffffffff168152602001908152602001600020819055508273ffffffffffffffffffffffffffffffffffffffff163373ffffffffffffffffffffffffffffffffffffffff167f8c5be1e5ebec7d5bd14f71427d1e84f3dd0314c0f7b2291e5b200ac8c7c3b925846040518082815260200191505060405180910390a36001905092915050565b600080600080600080610e1961104b565b9450610e23611749565b9350600c5433896040518084600019166000191681526020018373ffffffffffffffffffffffffffffffffffffffff1673ffffffffffffffffffffffffffffffffffffffff166c0100000000000000000000000002815260140182815260200193505050506040518091039020925086600019168360001916141515610ea857600080fd5b600091505b610ec160028661231390919063ffffffff16565b821015610f585760007f0100000000000000000000000000000000000000000000000000000000000000028383602081101515610efa57fe5b1a7f0100000000000000000000000000000000000000000000000000000000000000027effffffffffffffffffffffffffffffffffffffffffffffffffffffffffffff1916141515610f4b57600080fd5b8180600101925050610ead565b6012600084600019166000191681526020019081526020016000205490508460126000856000191660001916815260200190815260200160002081905550600081141515610fa557600080fd5b610ff784601460003373ffffffffffffffffffffffffffffffffffffffff1673ffffffffffffffffffffffffffffffffffffffff1681526020019081526020016000205461233790919063ffffffff16565b601460003373ffffffffffffffffffffffffffffffffffffffff1673ffffffffffffffffffffffffffffffffffffffff16815260200190815260200160002081905550505050505092915050565b60115481565b6000600b54905090565b60008060008060008061106661104b565b9450611070611749565b9350600c5433896040518084600019166000191681526020018373ffffffffffffffffffffffffffffffffffffffff1673ffffffffffffffffffffffffffffffffffffffff166c01000000000000000000000000028152601401828152602001935050505060405180910390209250866000191683600019161415156110f557600080fd5b600091505b61110e60028661231390919063ffffffff16565b8210156111a55760007f010000000000000000000000000000000000000000000000000000000000000002838360208110151561114757fe5b1a7f0100000000000000000000000000000000000000000000000000000000000000027effffffffffffffffffffffffffffffffffffffffffffffffffffffffffffff191614151561119857600080fd5b81806001019250506110fa565b60126000846000191660001916815260200190815260200160002054905084601260008560001916600019168152602001908152602001600020819055506000811415156111f257600080fd5b61124484601460003373ffffffffffffffffffffffffffffffffffffffff1673ffffffffffffffffffffffffffffffffffffffff1681526020019081526020016000205461233790919063ffffffff16565b601460003373ffffffffffffffffffffffffffffffffffffffff1673ffffffffffffffffffffffffffffffffffffffff1681526020019081526020016000208190555061129c8460135461233790919063ffffffff16565b60138190555033600f60006101000a81548173ffffffffffffffffffffffffffffffffffffffff021916908373ffffffffffffffffffffffffffffffffffffffff16021790555083601081905550436011819055506112f9612353565b3373ffffffffffffffffffffffffffffffffffffffff167fcf6fbb9dcea7d07263ab4f5c3a92f53af33dffc421d9d121e1c74b307e68189d8587600c54604051808481526020018381526020018260001916600019168152602001935050505060405180910390a260019550505050505092915050565b6000601460008073ffffffffffffffffffffffffffffffffffffffff1673ffffffffffffffffffffffffffffffffffffffff1681526020019081526020016000205460055403905090565b600061140f82601460008773ffffffffffffffffffffffffffffffffffffffff1673ffffffffffffffffffffffffffffffffffffffff168152602001908152602001600020546123f090919063ffffffff16565b601460008673ffffffffffffffffffffffffffffffffffffffff1673ffffffffffffffffffffffffffffffffffffffff168152602001908152602001600020819055506114e182601560008773ffffffffffffffffffffffffffffffffffffffff1673ffffffffffffffffffffffffffffffffffffffff16815260200190815260200160002060003373ffffffffffffffffffffffffffffffffffffffff1673ffffffffffffffffffffffffffffffffffffffff168152602001908152602001600020546123f090919063ffffffff16565b601560008673ffffffffffffffffffffffffffffffffffffffff1673ffffffffffffffffffffffffffffffffffffffff16815260200190815260200160002060003373ffffffffffffffffffffffffffffffffffffffff1673ffffffffffffffffffffffffffffffffffffffff168152602001908152602001600020819055506115b382601460008673ffffffffffffffffffffffffffffffffffffffff1673ffffffffffffffffffffffffffffffffffffffff1681526020019081526020016000205461233790919063ffffffff16565b601460008573ffffffffffffffffffffffffffffffffffffffff1673ffffffffffffffffffffffffffffffffffffffff168152602001908152602001600020819055508273ffffffffffffffffffffffffffffffffffffffff168473ffffffffffffffffffffffffffffffffffffffff167fddf252ad1be2c89b69c2b068fc378daa952ba7f163c4a11628f55a4df523b3ef846040518082815260200191505060405180910390a3600190509392505050565b60008060008061167461104b565b925061167e611749565b9150600c5433876040518084600019166000191681526020018373ffffffffffffffffffffffffffffffffffffffff1673ffffffffffffffffffffffffffffffffffffffff166c010000000000000000000000000281526014018281526020019350505050604051809103902090508060016020811015156116fc57fe5b1a7f010000000000000000000000000000000000000000000000000000000000000002935050505092915050565b600d5481565b600460009054906101000a900460ff1681565b60055481565b600061177b600d5460020a600460009054906101000a900460ff1660ff16600a0a60320261231390919063ffffffff16565b905090565b6000600c54905090565b600e5481565b60135481565b600f60009054906101000a900473ffffffffffffffffffffffffffffffffffffffff1681565b6000601460008373ffffffffffffffffffffffffffffffffffffffff1673ffffffffffffffffffffffffffffffffffffffff168152602001908152602001600020549050919050565b600160009054906101000a900473ffffffffffffffffffffffffffffffffffffffff1673ffffffffffffffffffffffffffffffffffffffff163373ffffffffffffffffffffffffffffffffffffffff1614151561186157600080fd5b600160009054906101000a900473ffffffffffffffffffffffffffffffffffffffff1673ffffffffffffffffffffffffffffffffffffffff166000809054906101000a900473ffffffffffffffffffffffffffffffffffffffff1673ffffffffffffffffffffffffffffffffffffffff167f8be0079c531659141344cd1fd0a4f28419497f9722a3daafe3b4186f6b6457e060405160405180910390a3600160009054906101000a900473ffffffffffffffffffffffffffffffffffffffff166000806101000a81548173ffffffffffffffffffffffffffffffffffffffff021916908373ffffffffffffffffffffffffffffffffffffffff1602179055506000600160006101000a81548173ffffffffffffffffffffffffffffffffffffffff021916908373ffffffffffffffffffffffffffffffffffffffff160217905550565b60008060008060006119b461104b565b93506119be611749565b9250600c5433886040518084600019166000191681526020018373ffffffffffffffffffffffffffffffffffffffff1673ffffffffffffffffffffffffffffffffffffffff166c0100000000000000000000000002815260140182815260200193505050506040518091039020915085600019168260001916141515611a4357600080fd5b600090505b611a5c60028561231390919063ffffffff16565b811015611af35760007f0100000000000000000000000000000000000000000000000000000000000000028282602081101515611a9557fe5b1a7f0100000000000000000000000000000000000000000000000000000000000000027effffffffffffffffffffffffffffffffffffffffffffffffffffffffffffff1916141515611ae657600080fd5b8080600101915050611a48565b5050505092915050565b60075481565b600c5481565b6000809054906101000a900473ffffffffffffffffffffffffffffffffffffffff1681565b600a5481565b600080600080611b4261104b565b9250611b4c611749565b9150600c5433876040518084600019166000191681526020018373ffffffffffffffffffffffffffffffffffffffff1673ffffffffffffffffffffffffffffffffffffffff166c0100000000000000000000000002815260140182815260200193505050506040518091039020905084600019168160001916141515611bd157600080fd5b50505092915050565b60028054600181600116156101000203166002900480601f016020809104026020016040519081016040528092919081815260200182805460018160011615610100020316600290048015611c705780601f10611c4557610100808354040283529160200191611c70565b820191906000526020600020905b815481529060010190602001808311611c5357829003601f168201915b505050505081565b6000611ccc82601460003373ffffffffffffffffffffffffffffffffffffffff1673ffffffffffffffffffffffffffffffffffffffff168152602001908152602001600020546123f090919063ffffffff16565b601460003373ffffffffffffffffffffffffffffffffffffffff1673ffffffffffffffffffffffffffffffffffffffff16815260200190815260200160002081905550611d6182601460008673ffffffffffffffffffffffffffffffffffffffff1673ffffffffffffffffffffffffffffffffffffffff1681526020019081526020016000205461233790919063ffffffff16565b601460008573ffffffffffffffffffffffffffffffffffffffff1673ffffffffffffffffffffffffffffffffffffffff168152602001908152602001600020819055508273ffffffffffffffffffffffffffffffffffffffff163373ffffffffffffffffffffffffffffffffffffffff167fddf252ad1be2c89b69c2b068fc378daa952ba7f163c4a11628f55a4df523b3ef846040518082815260200191505060405180910390a36001905092915050565b600b5481565b60085481565b60095481565b60105481565b600082601560003373ffffffffffffffffffffffffffffffffffffffff1673ffffffffffffffffffffffffffffffffffffffff16815260200190815260200160002060008673ffffffffffffffffffffffffffffffffffffffff1673ffffffffffffffffffffffffffffffffffffffff168152602001908152602001600020819055508373ffffffffffffffffffffffffffffffffffffffff163373ffffffffffffffffffffffffffffffffffffffff167f8c5be1e5ebec7d5bd14f71427d1e84f3dd0314c0f7b2291e5b200ac8c7c3b925856040518082815260200191505060405180910390a38373ffffffffffffffffffffffffffffffffffffffff16638f4ffcb1338530866040518563ffffffff167c0100000000000000000000000000000000000000000000000000000000028152600401808573ffffffffffffffffffffffffffffffffffffffff1673ffffffffffffffffffffffffffffffffffffffff1681526020018481526020018373ffffffffffffffffffffffffffffffffffffffff1673ffffffffffffffffffffffffffffffffffffffff16815260200180602001828103825283818151815260200191508051906020019080838360005b83811015612008578082015181840152602081019050611fed565b50505050905090810190601f1680156120355780820380516001836020036101000a031916815260200191505b5095505050505050600060405180830381600087803b151561205657600080fd5b6102c65a03f1151561206757600080fd5b505050600190509392505050565b60065481565b600160009054906101000a900473ffffffffffffffffffffffffffffffffffffffff1681565b60008060009054906101000a900473ffffffffffffffffffffffffffffffffffffffff1673ffffffffffffffffffffffffffffffffffffffff163373ffffffffffffffffffffffffffffffffffffffff161415156120fe57600080fd5b8273ffffffffffffffffffffffffffffffffffffffff1663a9059cbb6000809054906101000a900473ffffffffffffffffffffffffffffffffffffffff16846000604051602001526040518363ffffffff167c0100000000000000000000000000000000000000000000000000000000028152600401808373ffffffffffffffffffffffffffffffffffffffff1673ffffffffffffffffffffffffffffffffffffffff16815260200182815260200192505050602060405180830381600087803b15156121ca57600080fd5b6102c65a03f115156121db57600080fd5b50505060405180519050905092915050565b6000601560008473ffffffffffffffffffffffffffffffffffffffff1673ffffffffffffffffffffffffffffffffffffffff16815260200190815260200160002060008373ffffffffffffffffffffffffffffffffffffffff1673ffffffffffffffffffffffffffffffffffffffff16815260200190815260200160002054905092915050565b6000809054906101000a900473ffffffffffffffffffffffffffffffffffffffff1673ffffffffffffffffffffffffffffffffffffffff163373ffffffffffffffffffffffffffffffffffffffff161415156122cf57600080fd5b80600160006101000a81548173ffffffffffffffffffffffffffffffffffffffff021916908373ffffffffffffffffffffffffffffffffffffffff16021790555050565b6000808211151561232357600080fd5b818381151561232e57fe5b04905092915050565b6000818301905082811015151561234d57600080fd5b92915050565b600e546013541015801561236957506020600d54105b1561237b576001600d5401600d819055505b6123986001600d540160020a60055461231390919063ffffffff16565b60055403600e819055506001430340600c81600019169055506123c7600160075461233790919063ffffffff16565b60078190555060006008546007548115156123de57fe5b0614156123ee576123ed61240c565b5b565b600082821115151561240157600080fd5b818303905092915050565b6000806000600654430392506008549150603c820290508083101561243c576002600b5401600b81905550612449565b6002600b5403600b819055505b43600681905550600954600b54101561246657600954600b819055505b600a54600b54111561247c57600a54600b819055505b5050505600a165627a7a723058203a365c24679abc2d21a19883f611d46e387bffa2204be4faa234496648784b270029",
  "source": "pragma solidity ^0.4.18;\n\n\n// ----------------------------------------------------------------------------\n\n// '0xBitcoin Token' contract\n\n//\n\n// Symbol      : 0xBTC\n\n// Name        : 0xBitcoin Token\n\n// Total supply: 21,000,000.00\n\n// Decimals    : 8\n\n//\n\n\n// ----------------------------------------------------------------------------\n\n\n\n// ----------------------------------------------------------------------------\n\n// Safe maths\n\n// ----------------------------------------------------------------------------\n\nlibrary SafeMath {\n\n    function add(uint a, uint b) internal pure returns (uint c) {\n\n        c = a + b;\n\n        require(c >= a);\n\n    }\n\n    function sub(uint a, uint b) internal pure returns (uint c) {\n\n        require(b <= a);\n\n        c = a - b;\n\n    }\n\n    function mul(uint a, uint b) internal pure returns (uint c) {\n\n        c = a * b;\n\n        require(a == 0 || c / a == b);\n\n    }\n\n    function div(uint a, uint b) internal pure returns (uint c) {\n\n        require(b > 0);\n\n        c = a / b;\n\n    }\n\n}\n\n\n\n// ----------------------------------------------------------------------------\n\n// ERC Token Standard #20 Interface\n\n// https://github.com/ethereum/EIPs/blob/master/EIPS/eip-20-token-standard.md\n\n// ----------------------------------------------------------------------------\n\ncontract ERC20Interface {\n\n    function totalSupply() public constant returns (uint);\n\n    function balanceOf(address tokenOwner) public constant returns (uint balance);\n\n    function allowance(address tokenOwner, address spender) public constant returns (uint remaining);\n\n    function transfer(address to, uint tokens) public returns (bool success);\n\n    function approve(address spender, uint tokens) public returns (bool success);\n\n    function transferFrom(address from, address to, uint tokens) public returns (bool success);\n\n\n    event Transfer(address indexed from, address indexed to, uint tokens);\n\n    event Approval(address indexed tokenOwner, address indexed spender, uint tokens);\n\n}\n\n\n\n// ----------------------------------------------------------------------------\n\n// Contract function to receive approval and execute function in one call\n\n//\n\n// Borrowed from MiniMeToken\n\n// ----------------------------------------------------------------------------\n\ncontract ApproveAndCallFallBack {\n\n    function receiveApproval(address from, uint256 tokens, address token, bytes data) public;\n\n}\n\n\n\n// ----------------------------------------------------------------------------\n\n// Owned contract\n\n// ----------------------------------------------------------------------------\n\ncontract Owned {\n\n    address public owner;\n\n    address public newOwner;\n\n\n    event OwnershipTransferred(address indexed _from, address indexed _to);\n\n\n    function Owned() public {\n\n        owner = msg.sender;\n\n    }\n\n\n    modifier onlyOwner {\n\n        require(msg.sender == owner);\n\n        _;\n\n    }\n\n\n    function transferOwnership(address _newOwner) public onlyOwner {\n\n        newOwner = _newOwner;\n\n    }\n\n    function acceptOwnership() public {\n\n        require(msg.sender == newOwner);\n\n        OwnershipTransferred(owner, newOwner);\n\n        owner = newOwner;\n\n        newOwner = address(0);\n\n    }\n\n}\n\n\n\n// ----------------------------------------------------------------------------\n\n// ERC20 Token, with the addition of symbol, name and decimals and an\n\n// initial fixed supply\n\n// ----------------------------------------------------------------------------\n\ncontract _0xBitcoinToken is ERC20Interface, Owned {\n\n    using SafeMath for uint;\n\n\n    string public symbol;\n\n    string public  name;\n\n    uint8 public decimals;\n\n    uint public _totalSupply;\n\n\n\n      //ethereum block number when last 0xbtc was minted\n  //  uint public latestMiningEpochStarted;\n\n    uint public latestDifficultyPeriodStarted;\n\n\n\n    uint public epochCount;//number of 'blocks' mined\n\n\n    uint public _BLOCKS_PER_READJUSTMENT = 2016;\n\n    uint public  _MINIMUM_DIFFICULTY = 6;\n\n    uint public  _MAXIMUM_DIFFICULTY = 54;\n\n\n\n    uint public miningDifficulty; //adjusts every 2016 epochs (or blocks)\n\n    bytes32 public challengeNumber;   //generate a new one when a new reward is minted\n\n\n\n    uint public rewardEra;\n    uint public maxSupplyForEra;\n\n\n    address public lastRewardTo;\n    uint public lastRewardAmount;\n    uint public lastRewardEthBlockNumber;\n\n\n    mapping(bytes32 => uint) rewardHashesFound; //the hash and the nonce\n\n    uint public tokensMinted;\n\n    mapping(address => uint) balances;\n\n\n\n\n\n    mapping(address => mapping(address => uint)) allowed;\n\n\n\n\n    event Mint(address indexed from, uint reward_amount, uint difficulty, bytes32 newChallengeNumber);\n\n    // ------------------------------------------------------------------------\n\n    // Constructor\n\n    // ------------------------------------------------------------------------\n\n    function _0xBitcoinToken() public onlyOwner{\n\n        symbol = \"0xBTC\";\n\n        name = \"0xBitcoin Token\";\n\n        decimals = 8;\n\n        _totalSupply = 21000000 * 10**uint(decimals);\n        tokensMinted = 0;\n\n        rewardEra = 0;\n        maxSupplyForEra = _totalSupply.div(2);\n\n        miningDifficulty = _MINIMUM_DIFFICULTY;\n\n        latestDifficultyPeriodStarted = block.number;\n\n        _startNewMiningEpoch();\n\n        //balances[owner] = _totalSupply;\n\n        //Transfer(address(0), owner, _totalSupply);\n\n    }\n\n    function _startNewMiningEpoch() internal {//a new block to be mined\n\n      //latestMiningEpochStarted = block.number;\n\n      if(tokensMinted >= maxSupplyForEra && rewardEra < 32) //32 is the final era, almost all tokens minted\n      {\n        rewardEra = rewardEra + 1;\n      }\n\n      //set the next minted supply at which the era will change\n      maxSupplyForEra = _totalSupply - _totalSupply.div( 2**(rewardEra + 1));\n\n      //make the latest ethereum block hash a part of the next challenge for PoW to prevent pre-mining future blocks\n      challengeNumber = block.blockhash(block.number - 1);\n\n\n      epochCount = epochCount.add(1);\n\n      //every so often, readjust difficulty, dont readjust when deploying\n      if(epochCount % _BLOCKS_PER_READJUSTMENT == 0)\n      {\n        _reAdjustDifficulty();\n      }\n\n\n\n    }\n\n\n\n\n    //https://en.bitcoin.it/wiki/Difficulty#What_is_the_formula_for_difficulty.3F\n    //as of 2017 the bitcoin difficulty was up to 17 zeroes, it was only 8 in the early days\n    function _reAdjustDifficulty() internal {\n\n\n        uint ethBlocksSinceLastDifficultyPeriod = block.number - latestDifficultyPeriodStarted;\n\n\n        //assume 360 ethereum blocks per hour\n\n        //we want miners to spend 10 minutes to mine each 'block', about 60 ethereum blocks = one 0xbitcoin epoch\n        uint epochsMined = _BLOCKS_PER_READJUSTMENT;\n        uint targetEthBlocksPerEpoch = epochsMined * 60;\n\n        if( ethBlocksSinceLastDifficultyPeriod < targetEthBlocksPerEpoch )\n        {\n          miningDifficulty = miningDifficulty + 2;\n        }else{\n          miningDifficulty = miningDifficulty - 2;\n        }\n\n\n\n        latestDifficultyPeriodStarted = block.number;\n\n        if(miningDifficulty < _MINIMUM_DIFFICULTY) //6\n        {\n          miningDifficulty = _MINIMUM_DIFFICULTY;\n        }\n\n        if(miningDifficulty > _MAXIMUM_DIFFICULTY) //54\n        {\n          miningDifficulty = _MAXIMUM_DIFFICULTY;\n        }\n    }\n\n\n    function mintTestA(uint256 nonce, bytes32 challenge_digest) public returns (bytes1 digesttest) {\n\n        uint difficulty = getMiningDifficulty();\n        uint reward_amount = getMiningReward();\n\n        bytes32 digest = keccak256(challengeNumber,msg.sender,nonce);\n        //this is not turning out right !!\n\n        //bytes memory characters = bytes(digest);\n\n        return digest[1];\n\n\n      }\n\n      function mintTestB(uint256 nonce, bytes32 challenge_digest) public returns (bytes1 digesttest) {\n\n        uint difficulty = getMiningDifficulty();\n        uint reward_amount = getMiningReward();\n\n        //the PoW must contain work that includes a recent etherum block hash (challenge number) and the msg.sender's address to prevent MITM attacks\n        bytes32 digest =  keccak256(challengeNumber, msg.sender, nonce );\n\n        //the challenge digest must match the expected\n        if (digest != challenge_digest) revert();\n\n\n        }\n\n        function mintTestC(uint256 nonce, bytes32 challenge_digest) public returns (bytes1 digesttest) {\n\n          uint difficulty = getMiningDifficulty();\n          uint reward_amount = getMiningReward();\n\n          //the PoW must contain work that includes a recent etherum block hash (challenge number) and the msg.sender's address to prevent MITM attacks\n          bytes32 digest =  keccak256(challengeNumber, msg.sender, nonce );\n\n          //the challenge digest must match the expected\n          if (digest != challenge_digest) revert();\n\n          //the digest must start with X zeroes where X is the difficulty\n           for(uint i = 0; i < difficulty.div(2)   ; i++) {\n              if (digest[i] != 0x00 ) revert();\n           }\n\n\n          }\n\n          function mintTestD(uint256 nonce, bytes32 challenge_digest) public returns (bytes1 digesttest) {\n\n            uint difficulty = getMiningDifficulty();\n            uint reward_amount = getMiningReward();\n\n            //the PoW must contain work that includes a recent etherum block hash (challenge number) and the msg.sender's address to prevent MITM attacks\n            bytes32 digest =  keccak256(challengeNumber, msg.sender, nonce );\n\n            //the challenge digest must match the expected\n            if (digest != challenge_digest) revert();\n\n            //the digest must start with X zeroes where X is the difficulty\n             for(uint i = 0; i < difficulty.div(2)   ; i++) {\n                if (digest[i] != 0x00 ) revert();\n             }\n\n\n             uint hashFound = rewardHashesFound[digest];\n\n\n              rewardHashesFound[digest] = difficulty;\n\n              if(hashFound != 0) revert();  //prevent the same answer from awarding twice\n\n\n\n             balances[msg.sender] = balances[msg.sender].add(reward_amount);\n\n\n            }\n\n    function mint(uint256 nonce, bytes32 challenge_digest) public returns (bool success) {\n\n        uint difficulty = getMiningDifficulty();\n        uint reward_amount = getMiningReward();\n\n        //the PoW must contain work that includes a recent etherum block hash (challenge number) and the msg.sender's address to prevent MITM attacks\n        bytes32 digest =  keccak256(challengeNumber, msg.sender, nonce );\n\n        //the challenge digest must match the expected\n        if (digest != challenge_digest) revert();\n\n        //the digest must start with X zeroes where X is the difficulty\n         for(uint i = 0; i < difficulty.div(2)   ; i++) {\n            if (digest[i] != 0x00 ) revert();\n         }\n\n         uint hashFound = rewardHashesFound[digest];\n\n         rewardHashesFound[digest] = difficulty;\n\n         if(hashFound != 0) revert();  //prevent the same answer from awarding twice\n\n\n\n        balances[msg.sender] = balances[msg.sender].add(reward_amount);\n\n\n        tokensMinted = tokensMinted.add(reward_amount);\n\n\n        //set readonly diagnostics data\n        lastRewardTo = msg.sender;\n        lastRewardAmount = reward_amount;\n        lastRewardEthBlockNumber = block.number;\n\n\n         _startNewMiningEpoch();\n\n          Mint(msg.sender, reward_amount, difficulty, challengeNumber );\n\n       return true;\n\n    }\n\n    //this is a recent ethreum block hash, used to prevent pre-mining future blocks\n    function getChallengeNumber() public constant returns (bytes32) {\n        return challengeNumber;\n    }\n\n    //the number of zeroes the digest of the PoW solution requires.  Auto adjusts\n     function getMiningDifficulty() public constant returns (uint) {\n        return miningDifficulty;\n    }\n\n\n\n    //21m coins total\n    //reward begins at 50 and is cut in half every reward era (as tokens are mined)\n    function getMiningReward() public constant returns (uint) {\n        //once we get half way thru the coins, only get 25 per block\n\n         //every reward era, the reward amount halves.\n\n         return (50 * 10**uint(decimals) ).div( 2**rewardEra ) ;\n\n    }\n\n\n\n    // ------------------------------------------------------------------------\n\n    // Total supply\n\n    // ------------------------------------------------------------------------\n\n    function totalSupply() public constant returns (uint) {\n\n        return _totalSupply  - balances[address(0)];\n\n    }\n\n\n\n    // ------------------------------------------------------------------------\n\n    // Get the token balance for account `tokenOwner`\n\n    // ------------------------------------------------------------------------\n\n    function balanceOf(address tokenOwner) public constant returns (uint balance) {\n\n        return balances[tokenOwner];\n\n    }\n\n\n\n    // ------------------------------------------------------------------------\n\n    // Transfer the balance from token owner's account to `to` account\n\n    // - Owner's account must have sufficient balance to transfer\n\n    // - 0 value transfers are allowed\n\n    // ------------------------------------------------------------------------\n\n    function transfer(address to, uint tokens) public returns (bool success) {\n\n        balances[msg.sender] = balances[msg.sender].sub(tokens);\n\n        balances[to] = balances[to].add(tokens);\n\n        Transfer(msg.sender, to, tokens);\n\n        return true;\n\n    }\n\n\n\n    // ------------------------------------------------------------------------\n\n    // Token owner can approve for `spender` to transferFrom(...) `tokens`\n\n    // from the token owner's account\n\n    //\n\n    // https://github.com/ethereum/EIPs/blob/master/EIPS/eip-20-token-standard.md\n\n    // recommends that there are no checks for the approval double-spend attack\n\n    // as this should be implemented in user interfaces\n\n    // ------------------------------------------------------------------------\n\n    function approve(address spender, uint tokens) public returns (bool success) {\n\n        allowed[msg.sender][spender] = tokens;\n\n        Approval(msg.sender, spender, tokens);\n\n        return true;\n\n    }\n\n\n\n    // ------------------------------------------------------------------------\n\n    // Transfer `tokens` from the `from` account to the `to` account\n\n    //\n\n    // The calling account must already have sufficient tokens approve(...)-d\n\n    // for spending from the `from` account and\n\n    // - From account must have sufficient balance to transfer\n\n    // - Spender must have sufficient allowance to transfer\n\n    // - 0 value transfers are allowed\n\n    // ------------------------------------------------------------------------\n\n    function transferFrom(address from, address to, uint tokens) public returns (bool success) {\n\n        balances[from] = balances[from].sub(tokens);\n\n        allowed[from][msg.sender] = allowed[from][msg.sender].sub(tokens);\n\n        balances[to] = balances[to].add(tokens);\n\n        Transfer(from, to, tokens);\n\n        return true;\n\n    }\n\n\n\n    // ------------------------------------------------------------------------\n\n    // Returns the amount of tokens approved by the owner that can be\n\n    // transferred to the spender's account\n\n    // ------------------------------------------------------------------------\n\n    function allowance(address tokenOwner, address spender) public constant returns (uint remaining) {\n\n        return allowed[tokenOwner][spender];\n\n    }\n\n\n\n    // ------------------------------------------------------------------------\n\n    // Token owner can approve for `spender` to transferFrom(...) `tokens`\n\n    // from the token owner's account. The `spender` contract function\n\n    // `receiveApproval(...)` is then executed\n\n    // ------------------------------------------------------------------------\n\n    function approveAndCall(address spender, uint tokens, bytes data) public returns (bool success) {\n\n        allowed[msg.sender][spender] = tokens;\n\n        Approval(msg.sender, spender, tokens);\n\n        ApproveAndCallFallBack(spender).receiveApproval(msg.sender, tokens, this, data);\n\n        return true;\n\n    }\n\n\n\n    // ------------------------------------------------------------------------\n\n    // Don't accept ETH\n\n    // ------------------------------------------------------------------------\n\n    function () public payable {\n\n        revert();\n\n    }\n\n\n\n    // ------------------------------------------------------------------------\n\n    // Owner can transfer out any accidentally sent ERC20 tokens\n\n    // ------------------------------------------------------------------------\n\n    function transferAnyERC20Token(address tokenAddress, uint tokens) public onlyOwner returns (bool success) {\n\n        return ERC20Interface(tokenAddress).transfer(owner, tokens);\n\n    }\n\n}\n",
  "sourcePath": "/home/andy/dev/0xbitcoin-token/contracts/_0xBitcoinToken.sol",
  "compiler": {
    "name": "solc",
    "version": "0.4.18+commit.9cf6e910.Emscripten.clang"
  },
  "schemaVersion": "1.0.1",
  "updatedAt": "2018-02-03T17:24:23.720Z"
}