{
  "contractName": "_0xBitcoinToken",
  "abi": [
    {
      "constant": true,
      "inputs": [],
      "name": "name",
      "outputs": [
        {
          "name": "",
          "type": "string"
        }
      ],
      "payable": false,
      "stateMutability": "view",
      "type": "function"
    },
    {
      "constant": false,
      "inputs": [
        {
          "name": "spender",
          "type": "address"
        },
        {
          "name": "tokens",
          "type": "uint256"
        }
      ],
      "name": "approve",
      "outputs": [
        {
          "name": "success",
          "type": "bool"
        }
      ],
      "payable": false,
      "stateMutability": "nonpayable",
      "type": "function"
    },
    {
      "constant": true,
      "inputs": [],
      "name": "lastRewardEthBlockNumber",
      "outputs": [
        {
          "name": "",
          "type": "uint256"
        }
      ],
      "payable": false,
      "stateMutability": "view",
      "type": "function"
    },
    {
      "constant": true,
      "inputs": [],
      "name": "getMiningDifficulty",
      "outputs": [
        {
          "name": "",
          "type": "uint256"
        }
      ],
      "payable": false,
      "stateMutability": "view",
      "type": "function"
    },
    {
      "constant": false,
      "inputs": [
        {
          "name": "nonce",
          "type": "uint256"
        },
        {
          "name": "challenge_digest",
          "type": "bytes32"
        }
      ],
      "name": "mint",
      "outputs": [
        {
          "name": "success",
          "type": "bool"
        }
      ],
      "payable": false,
      "stateMutability": "nonpayable",
      "type": "function"
    },
    {
      "constant": true,
      "inputs": [],
      "name": "totalSupply",
      "outputs": [
        {
          "name": "",
          "type": "uint256"
        }
      ],
      "payable": false,
      "stateMutability": "view",
      "type": "function"
    },
    {
      "constant": false,
      "inputs": [
        {
          "name": "from",
          "type": "address"
        },
        {
          "name": "to",
          "type": "address"
        },
        {
          "name": "tokens",
          "type": "uint256"
        }
      ],
      "name": "transferFrom",
      "outputs": [
        {
          "name": "success",
          "type": "bool"
        }
      ],
      "payable": false,
      "stateMutability": "nonpayable",
      "type": "function"
    },
    {
      "constant": true,
      "inputs": [],
      "name": "rewardEra",
      "outputs": [
        {
          "name": "",
          "type": "uint256"
        }
      ],
      "payable": false,
      "stateMutability": "view",
      "type": "function"
    },
    {
      "constant": true,
      "inputs": [],
      "name": "decimals",
      "outputs": [
        {
          "name": "",
          "type": "uint8"
        }
      ],
      "payable": false,
      "stateMutability": "view",
      "type": "function"
    },
    {
      "constant": true,
      "inputs": [],
      "name": "getMiningTarget",
      "outputs": [
        {
          "name": "",
          "type": "uint256"
        }
      ],
      "payable": false,
      "stateMutability": "view",
      "type": "function"
    },
    {
      "constant": true,
      "inputs": [],
      "name": "_totalSupply",
      "outputs": [
        {
          "name": "",
          "type": "uint256"
        }
      ],
      "payable": false,
      "stateMutability": "view",
      "type": "function"
    },
    {
      "constant": true,
      "inputs": [],
      "name": "getMiningReward",
      "outputs": [
        {
          "name": "",
          "type": "uint256"
        }
      ],
      "payable": false,
      "stateMutability": "view",
      "type": "function"
    },
    {
      "constant": true,
      "inputs": [],
      "name": "getChallengeNumber",
      "outputs": [
        {
          "name": "",
          "type": "bytes32"
        }
      ],
      "payable": false,
      "stateMutability": "view",
      "type": "function"
    },
    {
      "constant": true,
      "inputs": [],
      "name": "maxSupplyForEra",
      "outputs": [
        {
          "name": "",
          "type": "uint256"
        }
      ],
      "payable": false,
      "stateMutability": "view",
      "type": "function"
    },
    {
      "constant": true,
      "inputs": [],
      "name": "tokensMinted",
      "outputs": [
        {
          "name": "",
          "type": "uint256"
        }
      ],
      "payable": false,
      "stateMutability": "view",
      "type": "function"
    },
    {
      "constant": true,
      "inputs": [],
      "name": "lastRewardTo",
      "outputs": [
        {
          "name": "",
          "type": "address"
        }
      ],
      "payable": false,
      "stateMutability": "view",
      "type": "function"
    },
    {
      "constant": true,
      "inputs": [
        {
          "name": "tokenOwner",
          "type": "address"
        }
      ],
      "name": "balanceOf",
      "outputs": [
        {
          "name": "balance",
          "type": "uint256"
        }
      ],
      "payable": false,
      "stateMutability": "view",
      "type": "function"
    },
    {
      "constant": false,
      "inputs": [],
      "name": "acceptOwnership",
      "outputs": [],
      "payable": false,
      "stateMutability": "nonpayable",
      "type": "function"
    },
    {
      "constant": false,
      "inputs": [
        {
          "name": "nonce",
          "type": "uint256"
        },
        {
          "name": "challenge_digest",
          "type": "bytes32"
        },
        {
          "name": "challenge_number",
          "type": "bytes32"
        },
        {
          "name": "testDifficulty",
          "type": "uint256"
        }
      ],
      "name": "checkMintSolution",
      "outputs": [
        {
          "name": "success",
          "type": "bool"
        }
      ],
      "payable": false,
      "stateMutability": "nonpayable",
      "type": "function"
    },
    {
      "constant": true,
      "inputs": [],
      "name": "epochCount",
      "outputs": [
        {
          "name": "",
          "type": "uint256"
        }
      ],
      "payable": false,
      "stateMutability": "view",
      "type": "function"
    },
    {
      "constant": true,
      "inputs": [],
      "name": "_MAXIMUM_TARGET",
      "outputs": [
        {
          "name": "",
          "type": "uint256"
        }
      ],
      "payable": false,
      "stateMutability": "view",
      "type": "function"
    },
    {
      "constant": true,
      "inputs": [],
      "name": "miningTarget",
      "outputs": [
        {
          "name": "",
          "type": "uint256"
        }
      ],
      "payable": false,
      "stateMutability": "view",
      "type": "function"
    },
    {
      "constant": true,
      "inputs": [],
      "name": "challengeNumber",
      "outputs": [
        {
          "name": "",
          "type": "bytes32"
        }
      ],
      "payable": false,
      "stateMutability": "view",
      "type": "function"
    },
    {
      "constant": true,
      "inputs": [],
      "name": "owner",
      "outputs": [
        {
          "name": "",
          "type": "address"
        }
      ],
      "payable": false,
      "stateMutability": "view",
      "type": "function"
    },
    {
      "constant": true,
      "inputs": [],
      "name": "symbol",
      "outputs": [
        {
          "name": "",
          "type": "string"
        }
      ],
      "payable": false,
      "stateMutability": "view",
      "type": "function"
    },
    {
      "constant": false,
      "inputs": [
        {
          "name": "nonce",
          "type": "uint256"
        },
        {
          "name": "challenge_digest",
          "type": "bytes32"
        },
        {
          "name": "challenge_number",
          "type": "bytes32"
        }
      ],
      "name": "getMintDigest",
      "outputs": [
        {
          "name": "digesttest",
          "type": "bytes32"
        }
      ],
      "payable": false,
      "stateMutability": "nonpayable",
      "type": "function"
    },
    {
      "constant": false,
      "inputs": [
        {
          "name": "to",
          "type": "address"
        },
        {
          "name": "tokens",
          "type": "uint256"
        }
      ],
      "name": "transfer",
      "outputs": [
        {
          "name": "success",
          "type": "bool"
        }
      ],
      "payable": false,
      "stateMutability": "nonpayable",
      "type": "function"
    },
    {
      "constant": true,
      "inputs": [],
      "name": "_BLOCKS_PER_READJUSTMENT",
      "outputs": [
        {
          "name": "",
          "type": "uint256"
        }
      ],
      "payable": false,
      "stateMutability": "view",
      "type": "function"
    },
    {
      "constant": true,
      "inputs": [],
      "name": "lastRewardAmount",
      "outputs": [
        {
          "name": "",
          "type": "uint256"
        }
      ],
      "payable": false,
      "stateMutability": "view",
      "type": "function"
    },
    {
      "constant": false,
      "inputs": [
        {
          "name": "spender",
          "type": "address"
        },
        {
          "name": "tokens",
          "type": "uint256"
        },
        {
          "name": "data",
          "type": "bytes"
        }
      ],
      "name": "approveAndCall",
      "outputs": [
        {
          "name": "success",
          "type": "bool"
        }
      ],
      "payable": false,
      "stateMutability": "nonpayable",
      "type": "function"
    },
    {
      "constant": true,
      "inputs": [],
      "name": "latestDifficultyPeriodStarted",
      "outputs": [
        {
          "name": "",
          "type": "uint256"
        }
      ],
      "payable": false,
      "stateMutability": "view",
      "type": "function"
    },
    {
      "constant": true,
      "inputs": [],
      "name": "newOwner",
      "outputs": [
        {
          "name": "",
          "type": "address"
        }
      ],
      "payable": false,
      "stateMutability": "view",
      "type": "function"
    },
    {
      "constant": false,
      "inputs": [
        {
          "name": "tokenAddress",
          "type": "address"
        },
        {
          "name": "tokens",
          "type": "uint256"
        }
      ],
      "name": "transferAnyERC20Token",
      "outputs": [
        {
          "name": "success",
          "type": "bool"
        }
      ],
      "payable": false,
      "stateMutability": "nonpayable",
      "type": "function"
    },
    {
      "constant": true,
      "inputs": [],
      "name": "_MINIMUM_TARGET",
      "outputs": [
        {
          "name": "",
          "type": "uint256"
        }
      ],
      "payable": false,
      "stateMutability": "view",
      "type": "function"
    },
    {
      "constant": true,
      "inputs": [
        {
          "name": "tokenOwner",
          "type": "address"
        },
        {
          "name": "spender",
          "type": "address"
        }
      ],
      "name": "allowance",
      "outputs": [
        {
          "name": "remaining",
          "type": "uint256"
        }
      ],
      "payable": false,
      "stateMutability": "view",
      "type": "function"
    },
    {
      "constant": false,
      "inputs": [
        {
          "name": "_newOwner",
          "type": "address"
        }
      ],
      "name": "transferOwnership",
      "outputs": [],
      "payable": false,
      "stateMutability": "nonpayable",
      "type": "function"
    },
    {
      "inputs": [],
      "payable": false,
      "stateMutability": "nonpayable",
      "type": "constructor"
    },
    {
      "payable": true,
      "stateMutability": "payable",
      "type": "fallback"
    },
    {
      "anonymous": false,
      "inputs": [
        {
          "indexed": true,
          "name": "from",
          "type": "address"
        },
        {
          "indexed": false,
          "name": "reward_amount",
          "type": "uint256"
        },
        {
          "indexed": false,
          "name": "epochCount",
          "type": "uint256"
        },
        {
          "indexed": false,
          "name": "newChallengeNumber",
          "type": "bytes32"
        }
      ],
      "name": "Mint",
      "type": "event"
    },
    {
      "anonymous": false,
      "inputs": [
        {
          "indexed": true,
          "name": "_from",
          "type": "address"
        },
        {
          "indexed": true,
          "name": "_to",
          "type": "address"
        }
      ],
      "name": "OwnershipTransferred",
      "type": "event"
    },
    {
      "anonymous": false,
      "inputs": [
        {
          "indexed": true,
          "name": "from",
          "type": "address"
        },
        {
          "indexed": true,
          "name": "to",
          "type": "address"
        },
        {
          "indexed": false,
          "name": "tokens",
          "type": "uint256"
        }
      ],
      "name": "Transfer",
      "type": "event"
    },
    {
      "anonymous": false,
      "inputs": [
        {
          "indexed": true,
          "name": "tokenOwner",
          "type": "address"
        },
        {
          "indexed": true,
          "name": "spender",
          "type": "address"
        },
        {
          "indexed": false,
          "name": "tokens",
          "type": "uint256"
        }
      ],
      "name": "Approval",
      "type": "event"
    }
  ],
  "bytecode": "0x60606040526101006008556101006009557f0400000000000000000000000000000000000000000000000000000000000000600a5534156200004057600080fd5b336000806101000a81548173ffffffffffffffffffffffffffffffffffffffff021916908373ffffffffffffffffffffffffffffffffffffffff1602179055506000809054906101000a900473ffffffffffffffffffffffffffffffffffffffff1673ffffffffffffffffffffffffffffffffffffffff163373ffffffffffffffffffffffffffffffffffffffff16141515620000dc57600080fd5b6040805190810160405280600581526020017f307842544300000000000000000000000000000000000000000000000000000081525060029080519060200190620001299291906200045e565b506040805190810160405280600f81526020017f3078426974636f696e20546f6b656e000000000000000000000000000000000081525060039080519060200190620001779291906200045e565b506008600460006101000a81548160ff021916908360ff160217905550600460009054906101000a900460ff1660ff16600a0a6301406f400260058190555060006013819055506000600d81905550620001ec6002600554620002266401000000000262001d60179091906401000000009004565b600e81905550600a54600b8190555043600681905550620002206200024c6401000000000262001da0176401000000009004565b6200050d565b600080821115156200023757600080fd5b81838115156200024357fe5b04905092915050565b600e54601354101580156200026357506020600d54105b1562000276576001600d5401600d819055505b620002a36001600d540160020a600554620002266401000000000262001d60179091906401000000009004565b60055403600e819055506001430340600c8160001916905550620002e26001600754620003236401000000000262001d84179091906401000000009004565b6007819055506000600854600754811515620002fa57fe5b061415620003215762000320620003406401000000000262001e59176401000000009004565b5b565b600081830190508281101515156200033a57600080fd5b92915050565b6000806000600654430392506008549150603c8202905080831015620003b657620003aa6200038a6014600b54620002266401000000000262001d60179091906401000000009004565b600b54620004416401000000000262001e3d179091906401000000009004565b600b8190555062000407565b62000400620003e06014600b54620002266401000000000262001d60179091906401000000009004565b600b54620003236401000000000262001d84179091906401000000009004565b600b819055505b43600681905550600954600b5410156200042557600954600b819055505b600a54600b5411156200043c57600a54600b819055505b505050565b60008282111515156200045357600080fd5b818303905092915050565b828054600181600116156101000203166002900490600052602060002090601f016020900481019282601f10620004a157805160ff1916838001178555620004d2565b82800160010185558215620004d2579182015b82811115620004d1578251825591602001919060010190620004b4565b5b509050620004e19190620004e5565b5090565b6200050a91905b8082111562000506576000816000905550600101620004ec565b5090565b90565b611f42806200051d6000396000f3006060604052600436106101c2576000357c0100000000000000000000000000000000000000000000000000000000900463ffffffff16806306fdde03146101c7578063095ea7b314610255578063163aa00d146102af57806317da485f146102d85780631801fbe51461030157806318160ddd1461034957806323b872dd146103725780632d38bf7a146103eb578063313ce5671461041457806332e99708146104435780633eaaf86b1461046c578063490203a7146104955780634ef37628146104be5780634fa972e1146104ef5780636de9f32b146105185780636fd396d61461054157806370a082311461059657806379ba5097146105e357806381269a56146105f8578063829965cc1461065657806387a2a9d61461067f5780638a769d35146106a85780638ae0368b146106d15780638da5cb5b1461070257806395d89b411461075757806397566aa0146107e5578063a9059cbb1461083e578063b5ade81b14610898578063bafedcaa146108c1578063cae9ca51146108ea578063cb9ae70714610987578063d4ee1d90146109b0578063dc39d06d14610a05578063dc6e9cf914610a5f578063dd62ed3e14610a88578063f2fde38b14610af4575b600080fd5b34156101d257600080fd5b6101da610b2d565b6040518080602001828103825283818151815260200191508051906020019080838360005b8381101561021a5780820151818401526020810190506101ff565b50505050905090810190601f1680156102475780820380516001836020036101000a031916815260200191505b509250505060405180910390f35b341561026057600080fd5b610295600480803573ffffffffffffffffffffffffffffffffffffffff16906020019091908035906020019091905050610bcb565b604051808215151515815260200191505060405180910390f35b34156102ba57600080fd5b6102c2610cbd565b6040518082815260200191505060405180910390f35b34156102e357600080fd5b6102eb610cc3565b6040518082815260200191505060405180910390f35b341561030c57600080fd5b61032f600480803590602001909190803560001916906020019091905050610ce1565b604051808215151515815260200191505060405180910390f35b341561035457600080fd5b61035c610f54565b6040518082815260200191505060405180910390f35b341561037d57600080fd5b6103d1600480803573ffffffffffffffffffffffffffffffffffffffff1690602001909190803573ffffffffffffffffffffffffffffffffffffffff16906020019091908035906020019091905050610f9f565b604051808215151515815260200191505060405180910390f35b34156103f657600080fd5b6103fe61124a565b6040518082815260200191505060405180910390f35b341561041f57600080fd5b610427611250565b604051808260ff1660ff16815260200191505060405180910390f35b341561044e57600080fd5b610456611263565b6040518082815260200191505060405180910390f35b341561047757600080fd5b61047f61126d565b6040518082815260200191505060405180910390f35b34156104a057600080fd5b6104a8611273565b6040518082815260200191505060405180910390f35b34156104c957600080fd5b6104d16112aa565b60405180826000191660001916815260200191505060405180910390f35b34156104fa57600080fd5b6105026112b4565b6040518082815260200191505060405180910390f35b341561052357600080fd5b61052b6112ba565b6040518082815260200191505060405180910390f35b341561054c57600080fd5b6105546112c0565b604051808273ffffffffffffffffffffffffffffffffffffffff1673ffffffffffffffffffffffffffffffffffffffff16815260200191505060405180910390f35b34156105a157600080fd5b6105cd600480803573ffffffffffffffffffffffffffffffffffffffff169060200190919050506112e6565b6040518082815260200191505060405180910390f35b34156105ee57600080fd5b6105f661132f565b005b341561060357600080fd5b61063c600480803590602001909190803560001916906020019091908035600019169060200190919080359060200190919050506114ce565b604051808215151515815260200191505060405180910390f35b341561066157600080fd5b610669611577565b6040518082815260200191505060405180910390f35b341561068a57600080fd5b61069261157d565b6040518082815260200191505060405180910390f35b34156106b357600080fd5b6106bb611583565b6040518082815260200191505060405180910390f35b34156106dc57600080fd5b6106e4611589565b60405180826000191660001916815260200191505060405180910390f35b341561070d57600080fd5b61071561158f565b604051808273ffffffffffffffffffffffffffffffffffffffff1673ffffffffffffffffffffffffffffffffffffffff16815260200191505060405180910390f35b341561076257600080fd5b61076a6115b4565b6040518080602001828103825283818151815260200191508051906020019080838360005b838110156107aa57808201518184015260208101905061078f565b50505050905090810190601f1680156107d75780820380516001836020036101000a031916815260200191505b509250505060405180910390f35b34156107f057600080fd5b61082060048080359060200190919080356000191690602001909190803560001916906020019091905050611652565b60405180826000191660001916815260200191505060405180910390f35b341561084957600080fd5b61087e600480803573ffffffffffffffffffffffffffffffffffffffff169060200190919080359060200190919050506116cb565b604051808215151515815260200191505060405180910390f35b34156108a357600080fd5b6108ab611866565b6040518082815260200191505060405180910390f35b34156108cc57600080fd5b6108d461186c565b6040518082815260200191505060405180910390f35b34156108f557600080fd5b61096d600480803573ffffffffffffffffffffffffffffffffffffffff1690602001909190803590602001909190803590602001908201803590602001908080601f01602080910402602001604051908101604052809392919081815260200183838082843782019150505050505091905050611872565b604051808215151515815260200191505060405180910390f35b341561099257600080fd5b61099a611abc565b6040518082815260200191505060405180910390f35b34156109bb57600080fd5b6109c3611ac2565b604051808273ffffffffffffffffffffffffffffffffffffffff1673ffffffffffffffffffffffffffffffffffffffff16815260200191505060405180910390f35b3415610a1057600080fd5b610a45600480803573ffffffffffffffffffffffffffffffffffffffff16906020019091908035906020019091905050611ae8565b604051808215151515815260200191505060405180910390f35b3415610a6a57600080fd5b610a72611c34565b6040518082815260200191505060405180910390f35b3415610a9357600080fd5b610ade600480803573ffffffffffffffffffffffffffffffffffffffff1690602001909190803573ffffffffffffffffffffffffffffffffffffffff16906020019091905050611c3a565b6040518082815260200191505060405180910390f35b3415610aff57600080fd5b610b2b600480803573ffffffffffffffffffffffffffffffffffffffff16906020019091905050611cc1565b005b60038054600181600116156101000203166002900480601f016020809104026020016040519081016040528092919081815260200182805460018160011615610100020316600290048015610bc35780601f10610b9857610100808354040283529160200191610bc3565b820191906000526020600020905b815481529060010190602001808311610ba657829003601f168201915b505050505081565b600081601560003373ffffffffffffffffffffffffffffffffffffffff1673ffffffffffffffffffffffffffffffffffffffff16815260200190815260200160002060008573ffffffffffffffffffffffffffffffffffffffff1673ffffffffffffffffffffffffffffffffffffffff168152602001908152602001600020819055508273ffffffffffffffffffffffffffffffffffffffff163373ffffffffffffffffffffffffffffffffffffffff167f8c5be1e5ebec7d5bd14f71427d1e84f3dd0314c0f7b2291e5b200ac8c7c3b925846040518082815260200191505060405180910390a36001905092915050565b60115481565b6000610cdc600b54600a54611d6090919063ffffffff16565b905090565b600080600080610cef611273565b9250600c5433876040518084600019166000191681526020018373ffffffffffffffffffffffffffffffffffffffff1673ffffffffffffffffffffffffffffffffffffffff166c0100000000000000000000000002815260140182815260200193505050506040518091039020915084600019168260001916141515610d7457600080fd5b600b5482600190041115610d8757600080fd5b60126000836000191660001916815260200190815260200160002054905060075460126000846000191660001916815260200190815260200160002081905550600081141515610dd657600080fd5b610e2883601460003373ffffffffffffffffffffffffffffffffffffffff1673ffffffffffffffffffffffffffffffffffffffff16815260200190815260200160002054611d8490919063ffffffff16565b601460003373ffffffffffffffffffffffffffffffffffffffff1673ffffffffffffffffffffffffffffffffffffffff16815260200190815260200160002081905550610e8083601354611d8490919063ffffffff16565b60138190555033600f60006101000a81548173ffffffffffffffffffffffffffffffffffffffff021916908373ffffffffffffffffffffffffffffffffffffffff1602179055508260108190555043601181905550610edd611da0565b3373ffffffffffffffffffffffffffffffffffffffff167fcf6fbb9dcea7d07263ab4f5c3a92f53af33dffc421d9d121e1c74b307e68189d84600754600c54604051808481526020018381526020018260001916600019168152602001935050505060405180910390a26001935050505092915050565b6000601460008073ffffffffffffffffffffffffffffffffffffffff1673ffffffffffffffffffffffffffffffffffffffff1681526020019081526020016000205460055403905090565b6000610ff382601460008773ffffffffffffffffffffffffffffffffffffffff1673ffffffffffffffffffffffffffffffffffffffff16815260200190815260200160002054611e3d90919063ffffffff16565b601460008673ffffffffffffffffffffffffffffffffffffffff1673ffffffffffffffffffffffffffffffffffffffff168152602001908152602001600020819055506110c582601560008773ffffffffffffffffffffffffffffffffffffffff1673ffffffffffffffffffffffffffffffffffffffff16815260200190815260200160002060003373ffffffffffffffffffffffffffffffffffffffff1673ffffffffffffffffffffffffffffffffffffffff16815260200190815260200160002054611e3d90919063ffffffff16565b601560008673ffffffffffffffffffffffffffffffffffffffff1673ffffffffffffffffffffffffffffffffffffffff16815260200190815260200160002060003373ffffffffffffffffffffffffffffffffffffffff1673ffffffffffffffffffffffffffffffffffffffff1681526020019081526020016000208190555061119782601460008673ffffffffffffffffffffffffffffffffffffffff1673ffffffffffffffffffffffffffffffffffffffff16815260200190815260200160002054611d8490919063ffffffff16565b601460008573ffffffffffffffffffffffffffffffffffffffff1673ffffffffffffffffffffffffffffffffffffffff168152602001908152602001600020819055508273ffffffffffffffffffffffffffffffffffffffff168473ffffffffffffffffffffffffffffffffffffffff167fddf252ad1be2c89b69c2b068fc378daa952ba7f163c4a11628f55a4df523b3ef846040518082815260200191505060405180910390a3600190509392505050565b600d5481565b600460009054906101000a900460ff1681565b6000600b54905090565b60055481565b60006112a5600d5460020a600460009054906101000a900460ff1660ff16600a0a603202611d6090919063ffffffff16565b905090565b6000600c54905090565b600e5481565b60135481565b600f60009054906101000a900473ffffffffffffffffffffffffffffffffffffffff1681565b6000601460008373ffffffffffffffffffffffffffffffffffffffff1673ffffffffffffffffffffffffffffffffffffffff168152602001908152602001600020549050919050565b600160009054906101000a900473ffffffffffffffffffffffffffffffffffffffff1673ffffffffffffffffffffffffffffffffffffffff163373ffffffffffffffffffffffffffffffffffffffff1614151561138b57600080fd5b600160009054906101000a900473ffffffffffffffffffffffffffffffffffffffff1673ffffffffffffffffffffffffffffffffffffffff166000809054906101000a900473ffffffffffffffffffffffffffffffffffffffff1673ffffffffffffffffffffffffffffffffffffffff167f8be0079c531659141344cd1fd0a4f28419497f9722a3daafe3b4186f6b6457e060405160405180910390a3600160009054906101000a900473ffffffffffffffffffffffffffffffffffffffff166000806101000a81548173ffffffffffffffffffffffffffffffffffffffff021916908373ffffffffffffffffffffffffffffffffffffffff1602179055506000600160006101000a81548173ffffffffffffffffffffffffffffffffffffffff021916908373ffffffffffffffffffffffffffffffffffffffff160217905550565b6000806000808492506114df611273565b91508533896040518084600019166000191681526020018373ffffffffffffffffffffffffffffffffffffffff1673ffffffffffffffffffffffffffffffffffffffff166c01000000000000000000000000028152601401828152602001935050505060405180910390209050600b548160019004111561155f57600080fd5b86600019168160001916149350505050949350505050565b60075481565b600a5481565b600b5481565b600c5481565b6000809054906101000a900473ffffffffffffffffffffffffffffffffffffffff1681565b60028054600181600116156101000203166002900480601f01602080910402602001604051908101604052809291908181526020018280546001816001161561010002031660029004801561164a5780601f1061161f5761010080835404028352916020019161164a565b820191906000526020600020905b81548152906001019060200180831161162d57829003601f168201915b505050505081565b6000808233866040518084600019166000191681526020018373ffffffffffffffffffffffffffffffffffffffff1673ffffffffffffffffffffffffffffffffffffffff166c01000000000000000000000000028152601401828152602001935050505060405180910390209050809150509392505050565b600061171f82601460003373ffffffffffffffffffffffffffffffffffffffff1673ffffffffffffffffffffffffffffffffffffffff16815260200190815260200160002054611e3d90919063ffffffff16565b601460003373ffffffffffffffffffffffffffffffffffffffff1673ffffffffffffffffffffffffffffffffffffffff168152602001908152602001600020819055506117b482601460008673ffffffffffffffffffffffffffffffffffffffff1673ffffffffffffffffffffffffffffffffffffffff16815260200190815260200160002054611d8490919063ffffffff16565b601460008573ffffffffffffffffffffffffffffffffffffffff1673ffffffffffffffffffffffffffffffffffffffff168152602001908152602001600020819055508273ffffffffffffffffffffffffffffffffffffffff163373ffffffffffffffffffffffffffffffffffffffff167fddf252ad1be2c89b69c2b068fc378daa952ba7f163c4a11628f55a4df523b3ef846040518082815260200191505060405180910390a36001905092915050565b60085481565b60105481565b600082601560003373ffffffffffffffffffffffffffffffffffffffff1673ffffffffffffffffffffffffffffffffffffffff16815260200190815260200160002060008673ffffffffffffffffffffffffffffffffffffffff1673ffffffffffffffffffffffffffffffffffffffff168152602001908152602001600020819055508373ffffffffffffffffffffffffffffffffffffffff163373ffffffffffffffffffffffffffffffffffffffff167f8c5be1e5ebec7d5bd14f71427d1e84f3dd0314c0f7b2291e5b200ac8c7c3b925856040518082815260200191505060405180910390a38373ffffffffffffffffffffffffffffffffffffffff16638f4ffcb1338530866040518563ffffffff167c0100000000000000000000000000000000000000000000000000000000028152600401808573ffffffffffffffffffffffffffffffffffffffff1673ffffffffffffffffffffffffffffffffffffffff1681526020018481526020018373ffffffffffffffffffffffffffffffffffffffff1673ffffffffffffffffffffffffffffffffffffffff16815260200180602001828103825283818151815260200191508051906020019080838360005b83811015611a4f578082015181840152602081019050611a34565b50505050905090810190601f168015611a7c5780820380516001836020036101000a031916815260200191505b5095505050505050600060405180830381600087803b1515611a9d57600080fd5b6102c65a03f11515611aae57600080fd5b505050600190509392505050565b60065481565b600160009054906101000a900473ffffffffffffffffffffffffffffffffffffffff1681565b60008060009054906101000a900473ffffffffffffffffffffffffffffffffffffffff1673ffffffffffffffffffffffffffffffffffffffff163373ffffffffffffffffffffffffffffffffffffffff16141515611b4557600080fd5b8273ffffffffffffffffffffffffffffffffffffffff1663a9059cbb6000809054906101000a900473ffffffffffffffffffffffffffffffffffffffff16846000604051602001526040518363ffffffff167c0100000000000000000000000000000000000000000000000000000000028152600401808373ffffffffffffffffffffffffffffffffffffffff1673ffffffffffffffffffffffffffffffffffffffff16815260200182815260200192505050602060405180830381600087803b1515611c1157600080fd5b6102c65a03f11515611c2257600080fd5b50505060405180519050905092915050565b60095481565b6000601560008473ffffffffffffffffffffffffffffffffffffffff1673ffffffffffffffffffffffffffffffffffffffff16815260200190815260200160002060008373ffffffffffffffffffffffffffffffffffffffff1673ffffffffffffffffffffffffffffffffffffffff16815260200190815260200160002054905092915050565b6000809054906101000a900473ffffffffffffffffffffffffffffffffffffffff1673ffffffffffffffffffffffffffffffffffffffff163373ffffffffffffffffffffffffffffffffffffffff16141515611d1c57600080fd5b80600160006101000a81548173ffffffffffffffffffffffffffffffffffffffff021916908373ffffffffffffffffffffffffffffffffffffffff16021790555050565b60008082111515611d7057600080fd5b8183811515611d7b57fe5b04905092915050565b60008183019050828110151515611d9a57600080fd5b92915050565b600e5460135410158015611db657506020600d54105b15611dc8576001600d5401600d819055505b611de56001600d540160020a600554611d6090919063ffffffff16565b60055403600e819055506001430340600c8160001916905550611e146001600754611d8490919063ffffffff16565b6007819055506000600854600754811515611e2b57fe5b061415611e3b57611e3a611e59565b5b565b6000828211151515611e4e57600080fd5b818303905092915050565b6000806000600654430392506008549150603c8202905080831015611ead57611ea2611e916014600b54611d6090919063ffffffff16565b600b54611e3d90919063ffffffff16565b600b81905550611ede565b611ed7611ec66014600b54611d6090919063ffffffff16565b600b54611d8490919063ffffffff16565b600b819055505b43600681905550600954600b541015611efb57600954600b819055505b600a54600b541115611f1157600a54600b819055505b5050505600a165627a7a72305820d59f3473ee8072d3b732daa114aa23e8db3e168007f7eca216306713144505270029",
  "source": "pragma solidity ^0.4.18;\n\n\n// ----------------------------------------------------------------------------\n\n// '0xBitcoin Token' contract\n\n//\n\n// Symbol      : 0xBTC\n\n// Name        : 0xBitcoin Token\n\n// Total supply: 21,000,000.00\n\n// Decimals    : 8\n\n//\n\n\n// ----------------------------------------------------------------------------\n\n\n\n// ----------------------------------------------------------------------------\n\n// Safe maths\n\n// ----------------------------------------------------------------------------\n\nlibrary SafeMath {\n\n    function add(uint a, uint b) internal pure returns (uint c) {\n\n        c = a + b;\n\n        require(c >= a);\n\n    }\n\n    function sub(uint a, uint b) internal pure returns (uint c) {\n\n        require(b <= a);\n\n        c = a - b;\n\n    }\n\n    function mul(uint a, uint b) internal pure returns (uint c) {\n\n        c = a * b;\n\n        require(a == 0 || c / a == b);\n\n    }\n\n    function div(uint a, uint b) internal pure returns (uint c) {\n\n        require(b > 0);\n\n        c = a / b;\n\n    }\n\n}\n\n\n\n// ----------------------------------------------------------------------------\n\n// ERC Token Standard #20 Interface\n\n// https://github.com/ethereum/EIPs/blob/master/EIPS/eip-20-token-standard.md\n\n// ----------------------------------------------------------------------------\n\ncontract ERC20Interface {\n\n    function totalSupply() public constant returns (uint);\n\n    function balanceOf(address tokenOwner) public constant returns (uint balance);\n\n    function allowance(address tokenOwner, address spender) public constant returns (uint remaining);\n\n    function transfer(address to, uint tokens) public returns (bool success);\n\n    function approve(address spender, uint tokens) public returns (bool success);\n\n    function transferFrom(address from, address to, uint tokens) public returns (bool success);\n\n\n    event Transfer(address indexed from, address indexed to, uint tokens);\n\n    event Approval(address indexed tokenOwner, address indexed spender, uint tokens);\n\n}\n\n\n\n// ----------------------------------------------------------------------------\n\n// Contract function to receive approval and execute function in one call\n\n//\n\n// Borrowed from MiniMeToken\n\n// ----------------------------------------------------------------------------\n\ncontract ApproveAndCallFallBack {\n\n    function receiveApproval(address from, uint256 tokens, address token, bytes data) public;\n\n}\n\n\n\n// ----------------------------------------------------------------------------\n\n// Owned contract\n\n// ----------------------------------------------------------------------------\n\ncontract Owned {\n\n    address public owner;\n\n    address public newOwner;\n\n\n    event OwnershipTransferred(address indexed _from, address indexed _to);\n\n\n    function Owned() public {\n\n        owner = msg.sender;\n\n    }\n\n\n    modifier onlyOwner {\n\n        require(msg.sender == owner);\n\n        _;\n\n    }\n\n\n    function transferOwnership(address _newOwner) public onlyOwner {\n\n        newOwner = _newOwner;\n\n    }\n\n    function acceptOwnership() public {\n\n        require(msg.sender == newOwner);\n\n        OwnershipTransferred(owner, newOwner);\n\n        owner = newOwner;\n\n        newOwner = address(0);\n\n    }\n\n}\n\n\n\n// ----------------------------------------------------------------------------\n\n// ERC20 Token, with the addition of symbol, name and decimals and an\n\n// initial fixed supply\n\n// ----------------------------------------------------------------------------\n\ncontract _0xBitcoinToken is ERC20Interface, Owned {\n\n    using SafeMath for uint;\n\n\n    string public symbol;\n\n    string public  name;\n\n    uint8 public decimals;\n\n    uint public _totalSupply;\n\n\n\n      //ethereum block number when last 0xbtc was minted\n  //  uint public latestMiningEpochStarted;\n\n    uint public latestDifficultyPeriodStarted;\n\n\n\n    uint public epochCount;//number of 'blocks' mined\n\n\n    uint public _BLOCKS_PER_READJUSTMENT = 256;\n\n\n    //a big number is easier ; just find a solution that is smaller\n    uint public  _MINIMUM_TARGET = 2**8;\n\n    //a little number\n    uint public  _MAXIMUM_TARGET = 2**250;\n\n\n    uint public miningTarget;\n  //  uint public miningDifficulty; //adjusts every 2016 epochs (or blocks)\n\n    bytes32 public challengeNumber;   //generate a new one when a new reward is minted\n\n\n\n    uint public rewardEra;\n    uint public maxSupplyForEra;\n\n\n    address public lastRewardTo;\n    uint public lastRewardAmount;\n    uint public lastRewardEthBlockNumber;\n\n\n    mapping(bytes32 => uint) rewardHashesFound; //the hash and the nonce\n\n    uint public tokensMinted;\n\n    mapping(address => uint) balances;\n\n\n\n\n\n    mapping(address => mapping(address => uint)) allowed;\n\n\n\n\n    event Mint(address indexed from, uint reward_amount, uint epochCount, bytes32 newChallengeNumber);\n\n    // ------------------------------------------------------------------------\n\n    // Constructor\n\n    // ------------------------------------------------------------------------\n\n    function _0xBitcoinToken() public onlyOwner{\n\n        symbol = \"0xBTC\";\n\n        name = \"0xBitcoin Token\";\n\n        decimals = 8;\n\n        _totalSupply = 21000000 * 10**uint(decimals);\n        tokensMinted = 0;\n\n        rewardEra = 0;\n        maxSupplyForEra = _totalSupply.div(2);\n\n        miningTarget = _MAXIMUM_TARGET;\n\n        latestDifficultyPeriodStarted = block.number;\n\n        _startNewMiningEpoch();\n\n        //balances[owner] = _totalSupply;\n\n        //Transfer(address(0), owner, _totalSupply);\n\n    }\n\n    function _startNewMiningEpoch() internal {//a new block to be mined\n\n      //latestMiningEpochStarted = block.number;\n\n      if(tokensMinted >= maxSupplyForEra && rewardEra < 32) //32 is the final era, almost all tokens minted\n      {\n        rewardEra = rewardEra + 1;\n      }\n\n      //set the next minted supply at which the era will change\n      maxSupplyForEra = _totalSupply - _totalSupply.div( 2**(rewardEra + 1));\n\n      //make the latest ethereum block hash a part of the next challenge for PoW to prevent pre-mining future blocks\n      challengeNumber = block.blockhash(block.number - 1);\n\n\n      epochCount = epochCount.add(1);\n\n      //every so often, readjust difficulty, dont readjust when deploying\n      if(epochCount % _BLOCKS_PER_READJUSTMENT == 0)\n      {\n        _reAdjustDifficulty();\n      }\n\n\n\n    }\n\n\n\n\n    //https://en.bitcoin.it/wiki/Difficulty#What_is_the_formula_for_difficulty.3F\n    //as of 2017 the bitcoin difficulty was up to 17 zeroes, it was only 8 in the early days\n\n    //readjust the target by 5 percent\n    function _reAdjustDifficulty() internal {\n\n\n        uint ethBlocksSinceLastDifficultyPeriod = block.number - latestDifficultyPeriodStarted;\n\n        //assume 360 ethereum blocks per hour\n\n        //we want miners to spend 10 minutes to mine each 'block', about 60 ethereum blocks = one 0xbitcoin epoch\n        uint epochsMined = _BLOCKS_PER_READJUSTMENT; //256\n\n        uint targetEthBlocksPerEpoch = epochsMined * 60; //should be 60 times slower than ethereum\n\n        //if there were less eth blocks passed in time than expected\n        if( ethBlocksSinceLastDifficultyPeriod < targetEthBlocksPerEpoch )\n        {\n          //make it harder\n          miningTarget = miningTarget.sub(miningTarget.div(20));\n        }else{\n          //make it easier\n          miningTarget = miningTarget.add(miningTarget.div(20));\n        }\n\n\n\n        latestDifficultyPeriodStarted = block.number;\n\n        if(miningTarget < _MINIMUM_TARGET) //6\n        {\n          miningTarget = _MINIMUM_TARGET;\n        }\n\n        if(miningTarget > _MAXIMUM_TARGET) //54\n        {\n          miningTarget = _MAXIMUM_TARGET;\n        }\n    }\n\n\n    function getMintDigest(uint256 nonce, bytes32 challenge_digest, bytes32 challenge_number) public returns (bytes32 digesttest) {\n\n        bytes32 digest = keccak256(challenge_number,msg.sender,nonce);\n\n        return digest;\n\n      }\n\n      function checkMintSolution(uint256 nonce, bytes32 challenge_digest, bytes32 challenge_number, uint testDifficulty) public returns (bool success) {\n\n          uint difficulty = testDifficulty;\n          uint reward_amount = getMiningReward();\n\n          bytes32 digest = keccak256(challenge_number,msg.sender,nonce);\n\n          //bytes memory characters = bytes(digest);\n\n          if(uint256(digest) > miningTarget) revert();\n\n          return (digest == challenge_digest);\n\n        }\n\n\n    function mint(uint256 nonce, bytes32 challenge_digest) public returns (bool success) {\n\n      //  uint difficulty = getMiningDifficulty();\n        uint reward_amount = getMiningReward();\n\n        //the PoW must contain work that includes a recent etherum block hash (challenge number) and the msg.sender's address to prevent MITM attacks\n        bytes32 digest =  keccak256(challengeNumber, msg.sender, nonce );\n\n        //the challenge digest must match the expected\n        if (digest != challenge_digest) revert();\n\n        //the digest must be smaller than the target\n        if(uint256(digest) > miningTarget) revert();\n      //  for(uint i = 0; i < difficulty    ; i++) {\n      //     if (digest[i] != 0x0 ) revert();\n      //  }\n\n         uint hashFound = rewardHashesFound[digest];\n         rewardHashesFound[digest] = epochCount;\n         if(hashFound != 0) revert();  //prevent the same answer from awarding twice\n\n\n\n        balances[msg.sender] = balances[msg.sender].add(reward_amount);\n\n\n        tokensMinted = tokensMinted.add(reward_amount);\n\n\n        //set readonly diagnostics data\n        lastRewardTo = msg.sender;\n        lastRewardAmount = reward_amount;\n        lastRewardEthBlockNumber = block.number;\n\n\n         _startNewMiningEpoch();\n\n          Mint(msg.sender, reward_amount, epochCount, challengeNumber );\n\n       return true;\n\n    }\n\n    //this is a recent ethreum block hash, used to prevent pre-mining future blocks\n    function getChallengeNumber() public constant returns (bytes32) {\n        return challengeNumber;\n    }\n\n    //the number of zeroes the digest of the PoW solution requires.  Auto adjusts\n     function getMiningDifficulty() public constant returns (uint) {\n        return _MAXIMUM_TARGET.div(miningTarget);\n    }\n\n    function getMiningTarget() public constant returns (uint) {\n       return miningTarget;\n   }\n\n\n\n    //21m coins total\n    //reward begins at 50 and is cut in half every reward era (as tokens are mined)\n    function getMiningReward() public constant returns (uint) {\n        //once we get half way thru the coins, only get 25 per block\n\n         //every reward era, the reward amount halves.\n\n         return (50 * 10**uint(decimals) ).div( 2**rewardEra ) ;\n\n    }\n\n\n\n    // ------------------------------------------------------------------------\n\n    // Total supply\n\n    // ------------------------------------------------------------------------\n\n    function totalSupply() public constant returns (uint) {\n\n        return _totalSupply  - balances[address(0)];\n\n    }\n\n\n\n    // ------------------------------------------------------------------------\n\n    // Get the token balance for account `tokenOwner`\n\n    // ------------------------------------------------------------------------\n\n    function balanceOf(address tokenOwner) public constant returns (uint balance) {\n\n        return balances[tokenOwner];\n\n    }\n\n\n\n    // ------------------------------------------------------------------------\n\n    // Transfer the balance from token owner's account to `to` account\n\n    // - Owner's account must have sufficient balance to transfer\n\n    // - 0 value transfers are allowed\n\n    // ------------------------------------------------------------------------\n\n    function transfer(address to, uint tokens) public returns (bool success) {\n\n        balances[msg.sender] = balances[msg.sender].sub(tokens);\n\n        balances[to] = balances[to].add(tokens);\n\n        Transfer(msg.sender, to, tokens);\n\n        return true;\n\n    }\n\n\n\n    // ------------------------------------------------------------------------\n\n    // Token owner can approve for `spender` to transferFrom(...) `tokens`\n\n    // from the token owner's account\n\n    //\n\n    // https://github.com/ethereum/EIPs/blob/master/EIPS/eip-20-token-standard.md\n\n    // recommends that there are no checks for the approval double-spend attack\n\n    // as this should be implemented in user interfaces\n\n    // ------------------------------------------------------------------------\n\n    function approve(address spender, uint tokens) public returns (bool success) {\n\n        allowed[msg.sender][spender] = tokens;\n\n        Approval(msg.sender, spender, tokens);\n\n        return true;\n\n    }\n\n\n\n    // ------------------------------------------------------------------------\n\n    // Transfer `tokens` from the `from` account to the `to` account\n\n    //\n\n    // The calling account must already have sufficient tokens approve(...)-d\n\n    // for spending from the `from` account and\n\n    // - From account must have sufficient balance to transfer\n\n    // - Spender must have sufficient allowance to transfer\n\n    // - 0 value transfers are allowed\n\n    // ------------------------------------------------------------------------\n\n    function transferFrom(address from, address to, uint tokens) public returns (bool success) {\n\n        balances[from] = balances[from].sub(tokens);\n\n        allowed[from][msg.sender] = allowed[from][msg.sender].sub(tokens);\n\n        balances[to] = balances[to].add(tokens);\n\n        Transfer(from, to, tokens);\n\n        return true;\n\n    }\n\n\n\n    // ------------------------------------------------------------------------\n\n    // Returns the amount of tokens approved by the owner that can be\n\n    // transferred to the spender's account\n\n    // ------------------------------------------------------------------------\n\n    function allowance(address tokenOwner, address spender) public constant returns (uint remaining) {\n\n        return allowed[tokenOwner][spender];\n\n    }\n\n\n\n    // ------------------------------------------------------------------------\n\n    // Token owner can approve for `spender` to transferFrom(...) `tokens`\n\n    // from the token owner's account. The `spender` contract function\n\n    // `receiveApproval(...)` is then executed\n\n    // ------------------------------------------------------------------------\n\n    function approveAndCall(address spender, uint tokens, bytes data) public returns (bool success) {\n\n        allowed[msg.sender][spender] = tokens;\n\n        Approval(msg.sender, spender, tokens);\n\n        ApproveAndCallFallBack(spender).receiveApproval(msg.sender, tokens, this, data);\n\n        return true;\n\n    }\n\n\n\n    // ------------------------------------------------------------------------\n\n    // Don't accept ETH\n\n    // ------------------------------------------------------------------------\n\n    function () public payable {\n\n        revert();\n\n    }\n\n\n\n    // ------------------------------------------------------------------------\n\n    // Owner can transfer out any accidentally sent ERC20 tokens\n\n    // ------------------------------------------------------------------------\n\n    function transferAnyERC20Token(address tokenAddress, uint tokens) public onlyOwner returns (bool success) {\n\n        return ERC20Interface(tokenAddress).transfer(owner, tokens);\n\n    }\n\n}\n",
  "sourcePath": "/home/andy/dev/0xbitcoin-token/contracts/_0xBitcoinToken.sol",
  "compiler": {
    "name": "solc",
    "version": "0.4.18+commit.9cf6e910.Emscripten.clang"
  },
  "schemaVersion": "1.0.1",
  "updatedAt": "2018-02-03T22:55:50.574Z"
}